:0A0000000C9468000C9400000C94AE
:10000A0000000C9400000C9400000C9400000C9466
:10001A0000000C9400000C9400000C9400000C9456
:10002A0000000C9400000C9400000C9400000C9446
:10003A0000000C9400000C9400000C9400000C9436
:10004A0000000C9400000C9400001027E8036400E0
:10005A000A00010000100001100001000000010068
:10006A000000000000003F065B4F666D7D077F6F52
:10007A00010001000100010042313A2530326420BA
:10008A0042323A2530326420453A25642000546FC2
:10009A0074616C205265673A202530326420000072
:1000AA000A00040066000A006002700001008A0269
:1000BA007A0001008B027C0001008C027E000100A4
:1000CA008D0280000000F894EE27ECBBF1E0FBBF44
:1000DA00EBBFE5BF8DE0A2E0BB27ED938A95E9F778
:1000EA0080E098E0A0E6ED930197E9F7EAEAF0E00C
:1000FA0085919591009761F0A591B591059015901C
:10010A00BF01F00105900D920197E1F7FB01F0CFD5
:10011A00EFE5EDBFE8E0EEBFC0E6D2E00C94A00147
:10012A00C19A85E08A95F1F7C19888EC90E0019729
:10013A00F1F70895AA93E8B3EF70AE2FE881EF7054
:10014A00E295E07FEA2BE8BBEBDF21960895AA93BC
:10015A00E881E03011F0C09801C0C09AE981E295C7
:10016A00EF70AE2FE7DFE981EF70AE2FE3DF88ECA7
:10017A0090E00197F1F71AC0BA93AA93A881B981BE
:10018A00EC91E03039F0ED91A883B983EA93A0E0CD
:10019A00DEDFF4CF0BC0AA93A981A03011F4E0E806
:1001AA0001C0E0ECA881EA0F0E9417042296089584
:1001BA00AFE0B0E00E948B04C098A3E0BBDFA5E0EB
:1001CA000E941B040E941B04B0E00E948B04A2E060
:1001DA00B1DF80E991E00197F1F7E8E20E941704A4
:1001EA00ECE00E941704E6E00E941704E1E00E9496
:1001FA001704A2E0B0E00E948B040895A0918E0239
:10020A00B0918F020E94E30430F4DF9AAEE8B2E0C4
:10021A000E94230401C0DF980895E4E6F0E0E09329
:10022A008E02F0938F0208950E94E90410E01430C0
:10023A0008F051C0E0E0E5BB0FE0EBB3E0783E2FF9
:10024A00103059F43E60E0918802E03011F0E9E79D
:10025A0003C0D4010E942904E5BB113099F43D6022
:10026A00E0918802E03029F0A0918402B0918502E1
:10027A0001C0D401EAE0F0E00E94BA04E05AFD4F5E
:10028A00E081E5BB123059F43B60E0918902E0302D
:10029A0011F0E9E703C0D5010E942904E5BB133038
:1002AA0099F43760E0918902E03029F0A091860242
:1002BA00B091870201C0D501EAE0F0E00E94BA04D9
:1002CA00E05AFD4FE081E5BB3BBB80ED97E001972B
:1002DA00F1F71F5FACCF0E94F0042496089561974E
:1002EA00E0E00E943104E2E8F0E0FA93EA93F401D4
:1002FA000E943904F5010E943904E0918002F091CC
:10030A0081020E9439048CE00E94E3036096DE01B8
:10031A0033DFE1E00E943104E8E9F0E0FA93EA937E
:10032A00F2010E94390484E00E94E3032896DE0168
:10033A0023DF61960895EFEFEABBE4BBE0E0E1BB9F
:10034A00EFEFE7BBEFE0EBBBEFEFE2BB31DF6CDFD8
:10035A0055DF809914C0E0918A02E03079F0F20109
:10036A0031962F013197E3E6F0E0E415F5051CF428
:10037A00E1E0F0E02F01E0E0E0938A0203C0E1E06F
:10038A00E0938A02819922C0E0918B02E030E9F081
:10039A000E943E0454F40E944504E0938402F093C0
:1003AA0085020E944F04E1E009C04614570444F054
:1003BA00F30131963F0131974F01E0E0E093880263
:1003CA002CDFE0E0E0938B028ADF03C0E1E0E093F8
:1003DA008B02829922C0E0918C02E030E9F00E94FF
:1003EA003E0454F40E944504E0938602F093870287
:1003FA000E944F04E1E009C04614570444F0F30197
:10040A0031963F0131975F01E0E0E093890205DF11
:10041A00E0E0E0938C0263DF03C0E1E0E0938C024A
:10042A00839940C0E0918D02E030D9F1A091800219
:10043A00B09181021A978CF5A2E8B2E00E945904A1
:10044A00A0918202B09183021A9734F0E1E0F0E0C1
:10045A00E0938202F0938302E0917E02F0917F02A0
:10046A00AAE6B2E0EE0FFF1FEA0FFB1FA09182027D
:10047A00B0918302A083B183A0917E02B0917F02E2
:10048A001196EAE0F0E00E94BA04E0937E02F0934B
:10049A007F02A0E8B2E00E945904E0E0E0938D02F6
:1004AA001EDF03C0E1E0E0938D0251CFFFCFBA9384
:1004BA00AA93A991B991EE27FF276D91662311F0AE
:1004CA003196FBCF0895BA93AA93AA27BB27E9913D
:1004DA00F9910590002011F01196FBCFFD010895C6
:1004EA00BA93AA931A930A93AA81BB8112960E947D
:1004FA00D604309729F1AA81BB8114960E94D604AA
:10050A008F01309761F00230E0E01E0780F0F801B9
:10051A0031978F01AA81BB811496ED93FC93AA812E
:10052A00BB8112960E9459043197AC81A083AA819B
:10053A00BB810E94D604FF2312F00E94590406C010
:10054A00AA81BB81EFEFFFEFED93FC93198108813C
:10055A0025960895BA93AA9326970E94E70410E075
:10056A00AC85BD85E0E0F0E0ED93FC93EA89FB8978
:10057A003196EA8BFB8B3197E4912E2FE03009F408
:10058A0015C1E12FE03039F4253211F411E002C02F
:10059A000E945F040AC1E130A9F4253219F40E94CD
:1005AA005F0402C112E040E000E02D3211F401E0E4
:1005BA00FCC02B3211F44BE2F8C0203211F440E2B5
:1005CA00F4C002C0E23039F450E013E0203311F4F1
:1005DA000068EBC003C0E33009F0E7C0203310F035
:1005EA002A3308F007C0AAE05A9F502DE22FE053A1
:1005FA005E0FDBC0E22FE33649F40E946604E88905
:10060A00F989A481AA930E946C04CEC0E33741F40D
:10061A000E9466040E9472040E945C021E2F0AC095
:10062A00E03761F40E9466040E9472040E94680224
:10063A001E2F086002600F7730E034C0E43611F0F4
:10064A00E93611F4046002C0E53731F4E4E5F0E07C
:10065A00EE83FF8315E00CC0E83511F4086003C08F
:10066A00E83709F0A1C0EEE5F0E0EE83FF8314E07D
:10067A0002FF14C00E9466040E947C04AB85AA2370
:10068A003AF4EA85FB850E949904EA87FB874DE2E2
:10069A00403011F01F5F01C00B7F04C00E94660446
:1006AA000E947C0400FD11C0151778F407FF08C0EA
:1006BA0002FF04C00B7F242F115001C020E301C0A8
:1006CA0020E20E945F045150EFCF312F01FF17C083
:1006DA003030A1F003FF06C0EE81FF812591EE8341
:1006EA00FF8305C0AE81BF812D91AE83BF830E9477
:1006FA005F04503009F051503150EACF4BC020E32B
:10070A00EE81FF810E94DA04E887F987EE81FF8192
:10071A003296EE83FF83E885F985AA85BB85AE17F5
:10072A00BF0750F02F5FA885B985EA85FB85EA1BCC
:10073A00FB0BEA87FB87EFCF2A3328F003FF02C0BF
:10074A00295F01C0295D04FD1AC0213320F4A88560
:10075A00B985119709F409C0531710F000FF01C0B9
:10076A0013C020E207FF0BC020E3006102FF07C0AD
:10077A000B7F4A930E946C04503009F051500E943A
:10078A005F04503009F051503150A885B98512974D
:10079A0008F0B5CF00FF08C0503031F05150E0E208
:1007AA00EA930E946C04F8CF10E0E0CEAC85BD85D8
:1007BA000E94D6040E94EE0464960895FF92F82ED1
:1007CA0026970E94E9040E948404309719F4EFEFF7
:1007DA00FFEF23C0DE0116960E9495048D010E9448
:1007EA008404EE83FF83E0E0E887E987DE011A9656
:1007FA000E9495040E94D604FA93EA931A930A93E4
:10080A00E5E7F2E0FA93EA93DE011A96A3DE9F0186
:10081A00AE81BF81E0E0EC93F9010E94F0042A96D0
:10082A00FF900895EA93A1E00C94AC00B0E00E9416
:10083A008B04A3E00E949F00A1E00895ED91FD9131
:10084A003197FE93EE930895EAE0F0E00E94B50432
:10085A00E05AFD4FE0810895EA93A0E00E94D0009B
:10086A00FE01FA93EA9308950E949D040E94DE0411
:10087A000895A0918002B09181020E94E304089534
:10088A00F601AAE6B2E0EE0FFF1FAE0FBF1F0E94ED
:10089A00D6040895D6011196EAE0F0E00E94BA045F
:1008AA006F01A0E8B2E0CACFED91FD913196FE93B7
:1008BA00EE9308952A93AD85BE85EF85F88909954B
:1008CA000895E889F9893497E88BF98B0895AD85FD
:1008DA00BE85EF85F88909950895A889B98914967E
:1008EA000E94D604EE83FF83AE81BF810895A88952
:1008FA00B98914960E94D604EA87FB870895DE0117
:10090A001C960E9495040E94D6040895109639F008
:10091A0080EA9FE00197F1F7A8951197C9F7089522
:10092A000024AF0DB01D0895F195E195F0400895AA
:10093A006F2F660F660B762F08950024112490E11D
:10094A00AA0FBB1F001C111C0E1A1F0A18F40E0E48
:10095A001F1E01C0A1609A9599F7FD01D001089563
:10096A0012D0EBDF0EF4E0DF0895E894B7FF04C07D
:10097A00A095B09511966894F7FDD6DFDEDFFD01EC
:10098A000EF4D2DF0895E894F7FF02C0CDDF689431
:10099A00B7FF06C0A095B095119600F8039400FA27
:1009AA000895ED91FC91119708950590F491E02D29
:1009BA0008957A936A93FA93EA93089500240A169B
:1009CA000B0608955A934A933A932A931A930A93D1
:1009DA0008955D814C813B812A811981088108959E
:00000001FF
